root@lamp-ubuntu-s-1vcpu-1gb-tor1-01:~# tcpdump -XX -i eth0
tcpdump: verbose output suppressed, use -v or -vv for full protocol decode
listening on eth0, link-type EN10MB (Ethernet), capture size 262144 bytes
00:18:34.581623 IP 178.128.229.39.ssh > 198.96.87.75.52485: Flags [P.], seq 3567313153:3567313261, ack 1929796690, win 501, options [nop,nop,TS val 1581919616 ecr 563817724], length 108
	0x0000:  fe00 0000 0101 8e09 d5d9 d1e7 0800 4510  ..............E.
	0x0010:  00a0 f004 4000 4006 94ef b280 e527 c660  ....@.@......'.`
	0x0020:  574b 0016 cd05 d4a0 e101 7306 5c52 8018  WK........s.\R..
	0x0030:  01f5 b5e6 0000 0101 080a 5e4a 2d80 219b  ..........^J-.!.
	0x0040:  2cfc d27f 03c0 450d 7db7 82cb 01ca b2f7  ,.....E.}.......
	0x0050:  5c56 f73b 461d 7e19 59ff eddf d645 cd16  \V.;F.~.Y....E..
	0x0060:  3fa4 fde5 5514 df08 37a0 a872 2693 4928  ?...U...7..r&.I(
	0x0070:  3e93 cd3b 0751 4c03 fe66 f074 2e45 0211  >..;.QL..f.t.E..
	0x0080:  ddef c656 d08b 074f 908c 33e0 200b 5819  ...V...O..3...X.
	0x0090:  e071 e0bc bcca 57e5 058e 3fe9 550a 9f18  .q....W...?.U...
	0x00a0:  3da7 ef7d 26ce 5dfb f007 5bf2 1187       =..}&.]...[...
00:18:34.581755 IP 178.128.229.39.ssh > 198.96.87.75.52485: Flags [P.], seq 108:144, ack 1, win 501, options [nop,nop,TS val 1581919616 ecr 563817724], length 36
	0x0000:  fe00 0000 0101 8e09 d5d9 d1e7 0800 4510  ..............E.
	0x0010:  0058 f005 4000 4006 9536 b280 e527 c660  .X..@.@..6...'.`
	0x0020:  574b 0016 cd05 d4a0 e16d 7306 5c52 8018  WK.......ms.\R..
	0x0030:  01f5 b59e 0000 0101 080a 5e4a 2d80 219b  ..........^J-.!.
	0x0040:  2cfc 6150 63bb c3c8 b997 7a9e cd95 cdff  ,.aPc.....z.....
	0x0050:  873c 8b5b d006 17bf ed64 532b 3e49 3aac  .<.[.....dS+>I:.
	0x0060:  b92f 5bee 0bf0                           ./[...
00:18:34.581924 IP 178.128.229.39.ssh > 198.96.87.75.52485: Flags [P.], seq 144:252, ack 1, win 501, options [nop,nop,TS val 1581919616 ecr 563817724], length 108
	0x0000:  fe00 0000 0101 8e09 d5d9 d1e7 0800 4510  ..............E.
	0x0010:  00a0 f006 4000 4006 94ed b280 e527 c660  ....@.@......'.`
	0x0020:  574b 0016 cd05 d4a0 e191 7306 5c52 8018  WK........s.\R..
	0x0030:  01f5 b5e6 0000 0101 080a 5e4a 2d80 219b  ..........^J-.!.
	0x0040:  2cfc 0435 6011 d045 fd3a 1019 acb3 853e  ,..5`..E.:.....>
	0x0050:  643b ac57 3216 21c6 b636 04e5 d168 3fad  d;.W2.!..6...h?.
	0x0060:  4f99 57ac ffd4 22da acd2 0a5a 17aa 7986  O.W..."....Z..y.
	0x0070:  7a48 ddad 6fa3 e124 4a31 826b 2381 0861  zH..o..$J1.k#..a
	0x0080:  5e49 6ee8 bf6d 23b6 42f3 ffe9 f2f3 7fcc  ^In..m#.B.......
	0x0090:  d1fd 46e4 7b1e 619a 2e38 a76d 399e 13ee  ..F.{.a..8.m9...
	0x00a0:  5043 5719 fb28 7bae 0a44 f6f1 ffe9       PCW..({..D....
00:18:34.582026 IP 178.128.229.39.ssh > 198.96.87.75.52485: Flags [P.], seq 252:288, ack 1, win 501, options [nop,nop,TS val 1581919616 ecr 563817724], length 36
	0x0000:  fe00 0000 0101 8e09 d5d9 d1e7 0800 4510  ..............E.
	0x0010:  0058 f007 4000 4006 9534 b280 e527 c660  .X..@.@..4...'.`
	0x0020:  574b 0016 cd05 d4a0 e1fd 7306 5c52 8018  WK........s.\R..
	0x0030:  01f5 b59e 0000 0101 080a 5e4a 2d80 219b  ..........^J-.!.
	0x0040:  2cfc d805 d40e 183b cc95 061b 55f1 bc0c  ,......;....U...
	0x0050:  8e3c 2bf8 7fba 4899 c4a5 cf59 9e17 b0e6  .<+...H....Y....
	0x0060:  c530 9505 8137                           .0...7
00:18:34.582801 IP 178.128.229.39.56638 > dns.google.domain: 56238+ PTR? 75.87.96.198.in-addr.arpa. (43)
	0x0000:  fe00 0000 0101 8e09 d5d9 d1e7 0800 4500  ..............E.
	0x0010:  0047 707d 4000 4011 2271 b280 e527 0808  .Gp}@.@."q...'..
	0x0020:  0808 dd3e 0035 0033 a7fc dbae 0100 0001  ...>.5.3........
	0x0030:  0000 0000 0000 0237 3502 3837 0239 3603  .......75.87.96.
	0x0040:  3139 3807 696e 2d61 6464 7204 6172 7061  198.in-addr.arpa
	0x0050:  0000 0c00 01                             .....
00:18:34.586622 IP 198.96.87.75.52485 > 178.128.229.39.ssh: Flags [.], ack 108, win 2046, options [nop,nop,TS val 563817736 ecr 1581919616], length 0
	0x0000:  8e09 d5d9 d1e7 fe00 0000 0101 0800 4500  ..............E.
	0x0010:  0034 0000 4000 3906 8c70 c660 574b b280  .4..@.9..p.`WK..
	0x0020:  e527 cd05 0016 7306 5c52 d4a0 e16d 8010  .'....s.\R...m..
	0x0030:  07fe 8c7a 0000 0101 080a 219b 2d08 5e4a  ...z......!.-.^J
	0x0040:  2d80                                     -.
00:18:34.586622 IP 198.96.87.75.52485 > 178.128.229.39.ssh: Flags [.], ack 144, win 2045, options [nop,nop,TS val 563817736 ecr 1581919616], length 0
	0x0000:  8e09 d5d9 d1e7 fe00 0000 0101 0800 4500  ..............E.
	0x0010:  0034 0000 4000 3906 8c70 c660 574b b280  .4..@.9..p.`WK..
	0x0020:  e527 cd05 0016 7306 5c52 d4a0 e191 8010  .'....s.\R......
	0x0030:  07fd 8c57 0000 0101 080a 219b 2d08 5e4a  ...W......!.-.^J
	0x0040:  2d80                                     -.
00:18:34.586622 IP 198.96.87.75.52485 > 178.128.229.39.ssh: Flags [.], ack 252, win 2044, options [nop,nop,TS val 563817736 ecr 1581919616], length 0
	0x0000:  8e09 d5d9 d1e7 fe00 0000 0101 0800 4500  ..............E.
	0x0010:  0034 0000 4000 3906 8c70 c660 574b b280  .4..@.9..p.`WK..
	0x0020:  e527 cd05 0016 7306 5c52 d4a0 e1fd 8010  .'....s.\R......
	0x0030:  07fc 8bec 0000 0101 080a 219b 2d08 5e4a  ..........!.-.^J
	0x0040:  2d80                                     -.
00:18:34.586622 IP 198.96.87.75.52485 > 178.128.229.39.ssh: Flags [.], ack 288, win 2043, options [nop,nop,TS val 563817736 ecr 1581919616], length 0
	0x0000:  8e09 d5d9 d1e7 fe00 0000 0101 0800 4500  ..............E.
	0x0010:  0034 0000 4000 3906 8c70 c660 574b b280  .4..@.9..p.`WK..
	0x0020:  e527 cd05 0016 7306 5c52 d4a0 e221 8010  .'....s.\R...!..
	0x0030:  07fb 8bc9 0000 0101 080a 219b 2d08 5e4a  ..........!.-.^J
	0x0040:  2d80                                     -.
00:18:34.590364 IP dns.google.domain > 178.128.229.39.56638: 56238 NXDomain 0/1/0 (108)
	0x0000:  8e09 d5d9 d1e7 fe00 0000 0101 0800 4500  ..............E.
	0x0010:  0088 c124 0000 7c11 d588 0808 0808 b280  ...$..|.........
	0x0020:  e527 0035 dd3e 0074 f3be dbae 8183 0001  .'.5.>.t........
	0x0030:  0000 0001 0000 0237 3502 3837 0239 3603  .......75.87.96.
	0x0040:  3139 3807 696e 2d61 6464 7204 6172 7061  198.in-addr.arpa
	0x0050:  0000 0c00 01c0 0f00 0600 0100 0007 0700  ................
	0x0060:  3503 6762 630b 6765 6f72 6765 6272 6f77  5.gbc.georgebrow
	0x0070:  6e02 6361 000a 686f 7374 6d61 7374 6572  n.ca..hostmaster
	0x0080:  c03b 77de 0d6d 0000 0384 0000 0258 0001  .;w..m.......X..
	0x0090:  5180 0000 0e10                           Q.....
00:18:34.590741 IP 178.128.229.39.40698 > dns.google.domain: 31327+ PTR? 39.229.128.178.in-addr.arpa. (45)
	0x0000:  fe00 0000 0101 8e09 d5d9 d1e7 0800 4500  ..............E.
	0x0010:  0049 707f 4000 4011 226d b280 e527 0808  .Ip.@.@."m...'..
	0x0020:  0808 9efa 0035 0035 a7fe 7a5f 0100 0001  .....5.5..z_....
	0x0030:  0000 0000 0000 0233 3903 3232 3903 3132  .......39.229.12
	0x0040:  3803 3137 3807 696e 2d61 6464 7204 6172  8.178.in-addr.ar
	0x0050:  7061 0000 0c00 01                        pa.....
00:18:34.611189 IP dns.google.domain > 178.128.229.39.40698: 31327 NXDomain 0/1/0 (112)
	0x0000:  8e09 d5d9 d1e7 fe00 0000 0101 0800 4500  ..............E.
	0x0010:  008c afb0 0000 7c11 e6f8 0808 0808 b280  ......|.........
	0x0020:  e527 0035 9efa 0078 fb2b 7a5f 8183 0001  .'.5...x.+z_....
	0x0030:  0000 0001 0000 0233 3903 3232 3903 3132  .......39.229.12
	0x0040:  3803 3137 3807 696e 2d61 6464 7204 6172  8.178.in-addr.ar
	0x0050:  7061 0000 0c00 01c0 0f00 0600 0100 0006  pa..............
	0x0060:  2a00 3703 6e73 310c 6469 6769 7461 6c6f  *.7.ns1.digitalo
	0x0070:  6365 616e 0363 6f6d 000a 686f 7374 6d61  cean.com..hostma
	0x0080:  7374 6572 c00f 607c 43f5 0000 2a30 0000  ster..`|C...*0..
	0x0090:  0e10 0009 3a80 0000 0708                 ....:.....
00:18:34.611683 IP 178.128.229.39.ssh > 198.96.87.75.52485: Flags [P.], seq 288:508, ack 1, win 501, options [nop,nop,TS val 1581919646 ecr 563817736], length 220
	0x0000:  fe00 0000 0101 8e09 d5d9 d1e7 0800 4510  ..............E.
	0x0010:  0110 f008 4000 4006 947b b280 e527 c660  ....@.@..{...'.`
	0x0020:  574b 0016 cd05 d4a0 e221 7306 5c52 8018  WK.......!s.\R..
	0x0030:  01f5 b656 0000 0101 080a 5e4a 2d9e 219b  ...V......^J-.!.
	0x0040:  2d08 7af6 d0f1 7b55 3e96 012a 7f31 5cd5  -.z...{U>..*.1\.
	0x0050:  ce41 cf3b 7f2a 2710 4a46 c832 4649 6b47  .A.;.*'.JF.2FIkG
	0x0060:  bb68 32f9 eb1f afb0 5767 adc3 e57f 8f81  .h2.....Wg......
	0x0070:  a44b ca79 91ba 5ec9 73ea e058 f9d1 147c  .K.y..^.s..X...|
	0x0080:  4cfb c959 76d9 cf81 7619 5494 f018 56be  L..Yv...v.T...V.
	0x0090:  44d4 0089 181c 35d4 6b3b ff77 0593 a3ce  D.....5.k;.w....
	0x00a0:  ee9c eac6 2cef 6ef0 f439 9a10 cdf3 4044  ....,.n..9....@D
	0x00b0:  1243 a4bb ef24 209d 9727 9380 29ab 89ab  .C...$...'..)...
	0x00c0:  26b4 6d39 3337 5388 55e1 46ea 6ee9 ac9e  &.m937S.U.F.n...
	0x00d0:  d991 b6b6 c628 6696 3c4f 0a41 1939 1f70  .....(f.<O.A.9.p
	0x00e0:  30fd 702d 3aa2 daca 9098 381b 9cce 1fbf  0.p-:.....8.....
	0x00f0:  7b74 8805 8441 78b6 0661 eeb8 68af 9e32  {t...Ax..a..h..2
	0x0100:  d90d 8385 c0bf 31f0 9873 9753 5f2e 4308  ......1..s.S_.C.
	0x0110:  0cba e161 bf13 6111 8f2c c247 133f       ...a..a..,.G.?
00:18:34.611851 IP 178.128.229.39.ssh > 198.96.87.75.52485: Flags [P.], seq 508:544, ack 1, win 501, options [nop,nop,TS val 1581919646 ecr 563817736], length 36
	0x0000:  fe00 0000 0101 8e09 d5d9 d1e7 0800 4510  ..............E.
	0x0010:  0058 f009 4000 4006 9532 b280 e527 c660  .X..@.@..2...'.`
	0x0020:  574b 0016 cd05 d4a0 e2fd 7306 5c52 8018  WK........s.\R..
	0x0030:  01f5 b59e 0000 0101 080a 5e4a 2d9e 219b  ..........^J-.!.
	0x0040:  2d08 3c00 306f 90ac 005a 3c6b fa6f b0ca  -.<.0o...Z<k.o..
	0x0050:  f4a4 c2b0 9046 3a22 6af2 cfda 4c9d 57ff  .....F:"j...L.W.
	0x0060:  621c b045 8d3f                           b..E.?
00:18:34.612003 IP 178.128.229.39.ssh > 198.96.87.75.52485: Flags [P.], seq 544:580, ack 1, win 501, options [nop,nop,TS val 1581919646 ecr 563817736], length 36
	0x0000:  fe00 0000 0101 8e09 d5d9 d1e7 0800 4510  ..............E.
	0x0010:  0058 f00a 4000 4006 9531 b280 e527 c660  .X..@.@..1...'.`
	0x0020:  574b 0016 cd05 d4a0 e321 7306 5c52 8018  WK.......!s.\R..
	0x0030:  01f5 b59e 0000 0101 080a 5e4a 2d9e 219b  ..........^J-.!.
	0x0040:  2d08 5587 66d0 c905 a6dd cb54 6d92 5965  -.U.f......Tm.Ye
	0x0050:  6940 9e69 28a8 f04a f842 f051 be35 8d9f  i@.i(..J.B.Q.5..
	0x0060:  dc28 e102 a890                           .(....
00:18:34.612148 IP 178.128.229.39.ssh > 198.96.87.75.52485: Flags [P.], seq 580:680, ack 1, win 501, options [nop,nop,TS val 1581919646 ecr 563817736], length 100
	0x0000:  fe00 0000 0101 8e09 d5d9 d1e7 0800 4510  ..............E.
	0x0010:  0098 f00b 4000 4006 94f0 b280 e527 c660  ....@.@......'.`
	0x0020:  574b 0016 cd05 d4a0 e345 7306 5c52 8018  WK.......Es.\R..
	0x0030:  01f5 b5de 0000 0101 080a 5e4a 2d9e 219b  ..........^J-.!.
	0x0040:  2d08 cad6 5540 9301 87d2 289b bf28 a5c6  -...U@....(..(..
	0x0050:  a1d4 737d 0116 e4ed d984 c5a4 30f9 f8c7  ..s}........0...
	0x0060:  9ef0 c20d d5c5 af43 d0ec fdf8 6665 8d7e  .......C....fe.~
	0x0070:  3e7e f7ea 1a13 3099 18b1 8d41 4305 db1e  >~....0....AC...
	0x0080:  2b44 68de 4af0 e117 21a0 9ebc 5d65 9471  +Dh.J...!...]e.q
	0x0090:  fa8d 5543 b930 c3ab ebdc 884a 48c8 5cbc  ..UC.0.....JH.\.
	0x00a0:  9a4b 4b6a f274                           .KKj.t
00:18:34.612279 IP 178.128.229.39.ssh > 198.96.87.75.52485: Flags [P.], seq 680:716, ack 1, win 501, options [nop,nop,TS val 1581919646 ecr 563817736], length 36
	0x0000:  fe00 0000 0101 8e09 d5d9 d1e7 0800 4510  ..............E.
	0x0010:  0058 f00c 4000 4006 952f b280 e527 c660  .X..@.@../...'.`
	0x0020:  574b 0016 cd05 d4a0 e3a9 7306 5c52 8018  WK........s.\R..
	0x0030:  01f5 b59e 0000 0101 080a 5e4a 2d9e 219b  ..........^J-.!.
	0x0040:  2d08 449b e339 3391 02a1 7e28 9264 1a19  -.D..93...~(.d..
	0x0050:  0271 ead8 055d b323 b603 9d23 37b2 731e  .q...].#...#7.s.
	0x0060:  1b9e 06be ca9b                           ......
00:18:34.612441 IP 178.128.229.39.ssh > 198.96.87.75.52485: Flags [P.], seq 716:752, ack 1, win 501, options [nop,nop,TS val 1581919646 ecr 563817736], length 36
	0x0000:  fe00 0000 0101 8e09 d5d9 d1e7 0800 4510  ..............E.
	0x0010:  0058 f00d 4000 4006 952e b280 e527 c660  .X..@.@......'.`
	0x0020:  574b 0016 cd05 d4a0 e3cd 7306 5c52 8018  WK........s.\R..
	0x0030:  01f5 b59e 0000 0101 080a 5e4a 2d9e 219b  ..........^J-.!.
	0x0040:  2d08 1efe 0391 4efc bdf8 69e7 504a b83c  -.....N...i.PJ.<
	0x0050:  58a0 0834 adb0 071f 1d23 fb97 f241 319d  X..4.....#...A1.
	0x0060:  88c1 6e9a 8593                           ..n...
00:18:34.612649 IP 178.128.229.39.ssh > 198.96.87.75.52485: Flags [P.], seq 752:852, ack 1, win 501, options [nop,nop,TS val 1581919647 ecr 563817736], length 100
	0x0000:  fe00 0000 0101 8e09 d5d9 d1e7 0800 4510  ..............E.
	0x0010:  0098 f00e 4000 4006 94ed b280 e527 c660  ....@.@......'.`
	0x0020:  574b 0016 cd05 d4a0 e3f1 7306 5c52 8018  WK........s.\R..
	0x0030:  01f5 b5de 0000 0101 080a 5e4a 2d9f 219b  ..........^J-.!.
	0x0040:  2d08 feb0 ac01 6820 0742 8011 4b14 9a89  -.....h..B..K...
	0x0050:  a3bc c81e 94d0 e20a 5de2 f4ce 29fc d715  ........]...)...
	0x0060:  0cb2 6abb 6da3 ddce d608 5d12 8886 a4e6  ..j.m.....].....
	0x0070:  f0f0 ab56 81f9 3870 17aa 76e8 c82d ad47  ...V..8p..v..-.G
	0x0080:  2e39 01be de70 cca8 eff2 21d2 b3e8 b362  .9...p....!....b
	0x0090:  f987 ed01 b960 81d6 0528 236a 77b9 61ac  .....`...(#jw.a.
	0x00a0:  976f 2c89 b64a                           .o,..J
00:18:34.612755 IP 178.128.229.39.ssh > 198.96.87.75.52485: Flags [P.], seq 852:888, ack 1, win 501, options [nop,nop,TS val 1581919647 ecr 563817736], length 36
	0x0000:  fe00 0000 0101 8e09 d5d9 d1e7 0800 4510  ..............E.
	0x0010:  0058 f00f 4000 4006 952c b280 e527 c660  .X..@.@..,...'.`
	0x0020:  574b 0016 cd05 d4a0 e455 7306 5c52 8018  WK.......Us.\R..
	0x0030:  01f5 b59e 0000 0101 080a 5e4a 2d9f 219b  ..........^J-.!.
	0x0040:  2d08 5e62 61ca 5f5f 5f2a 962e 6f69 6a73  -.^ba.___*..oijs
	0x0050:  c1c6 ce5c c213 b8ad 7989 fa7c 082a 4479  ...\....y..|.*Dy
	0x0060:  428b 932d f24c                           B..-.L
00:18:34.612906 IP 178.128.229.39.ssh > 198.96.87.75.52485: Flags [P.], seq 888:924, ack 1, win 501, options [nop,nop,TS val 1581919647 ecr 563817736], length 36
	0x0000:  fe00 0000 0101 8e09 d5d9 d1e7 0800 4510  ..............E.
	0x0010:  0058 f010 4000 4006 952b b280 e527 c660  .X..@.@..+...'.`
	0x0020:  574b 0016 cd05 d4a0 e479 7306 5c52 8018  WK.......ys.\R..
	0x0030:  01f5 b59e 0000 0101 080a 5e4a 2d9f 219b  ..........^J-.!.
	0x0040:  2d08 6bd1 2683 7f56 e917 ca71 aeac e1ae  -.k.&..V...q....
	0x0050:  2ad8 7ff1 bf6b be03 6c56 f873 6441 1ae6  *....k..lV.sdA..
	0x0060:  8ae8 1e8f 9328                           .....(
00:18:34.613046 IP 178.128.229.39.ssh > 198.96.87.75.52485: Flags [P.], seq 924:1024, ack 1, win 501, options [nop,nop,TS val 1581919647 ecr 563817736], length 100
	0x0000:  fe00 0000 0101 8e09 d5d9 d1e7 0800 4510  ..............E.
	0x0010:  0098 f011 4000 4006 94ea b280 e527 c660  ....@.@......'.`
	0x0020:  574b 0016 cd05 d4a0 e49d 7306 5c52 8018  WK........s.\R..
	0x0030:  01f5 b5de 0000 0101 080a 5e4a 2d9f 219b  ..........^J-.!.
	0x0040:  2d08 02c2 ae08 ad8f dec8 f9ae de22 7953  -............"yS
	0x0050:  67ff 96b9 7fb0 400e 8cf9 f872 2de4 993a  g.....@....r-..:
	0x0060:  4ba8 fd29 58d6 8dd6 df10 24ef c64a b012  K..)X.....$..J..
	0x0070:  ee2a 3e06 9c69 f596 adbb 7d42 e15a 84db  .*>..i....}B.Z..
	0x0080:  d41d 992e 87e4 c4be 86a6 1607 80bf bd72  ...............r
	0x0090:  40da a548 9bac 1c29 f5d9 3207 ab13 fae8  @..H...)..2.....
	0x00a0:  9628 5cef 64d5                           .(\.d.
00:18:34.617848 IP 198.96.87.75.52485 > 178.128.229.39.ssh: Flags [.], ack 508, win 2044, options [nop,nop,TS val 563817766 ecr 1581919646], length 0
	0x0000:  8e09 d5d9 d1e7 fe00 0000 0101 0800 4500  ..............E.
	0x0010:  0034 0000 4000 3906 8c70 c660 574b b280  .4..@.9..p.`WK..
	0x0020:  e527 cd05 0016 7306 5c52 d4a0 e2fd 8010  .'....s.\R......
	0x0030:  07fc 8ab0 0000 0101 080a 219b 2d26 5e4a  ..........!.-&^J
	0x0040:  2d9e                                     -.
00:18:34.617848 IP 198.96.87.75.52485 > 178.128.229.39.ssh: Flags [.], ack 544, win 2044, options [nop,nop,TS val 563817766 ecr 1581919646], length 0
	0x0000:  8e09 d5d9 d1e7 fe00 0000 0101 0800 4500  ..............E.
	0x0010:  0034 0000 4000 3906 8c70 c660 574b b280  .4..@.9..p.`WK..
	0x0020:  e527 cd05 0016 7306 5c52 d4a0 e321 8010  .'....s.\R...!..
	0x0030:  07fc 8a8c 0000 0101 080a 219b 2d26 5e4a  ..........!.-&^J
	0x0040:  2d9e                                     -.
00:18:34.617848 IP 198.96.87.75.52485 > 178.128.229.39.ssh: Flags [.], ack 580, win 2043, options [nop,nop,TS val 563817766 ecr 1581919646], length 0
	0x0000:  8e09 d5d9 d1e7 fe00 0000 0101 0800 4500  ..............E.
	0x0010:  0034 0000 4000 3906 8c70 c660 574b b280  .4..@.9..p.`WK..
	0x0020:  e527 cd05 0016 7306 5c52 d4a0 e345 8010 